:02000000802E50
:10003000E4F590F5A0743812022F740C12022F749C
:100040000612022F740112022F900F20E493B4FFC6
:1000500002800612023EA380F30075891575A898E8
:1000600075B808758D3C758BB0D28ED28CE4F59046
:10007000F5A078007A007C0075323075313075302B
:1000800030D2B4753B07753C02753D01753E017574
:100090003F0175984053877F75C83075CBFF75CA8F
:1000A000D97F327EFF7DFFDDFEDEFCDFFB75553242
:1000B0007556008A33A833743812022F740C12025A
:1000C0002F740612022F740112022FE875F0648457
:1000D0002430F532E5F075F00A842430F531E5F08E
:1000E0002430F530D2CA12025EE53375F00884F58B
:1000F0003AE5F075F00484F539E5F075F00284F521
:100100003885F03700900F00E493B4FF02800612A8
:10011000023EA380F300E53212023EE53112023EB8
:10012000E53012023E00900F0FE493B4FF02800608
:1001300012023EA380F3007440FF12022F12016BE3
:100140007440FF12022F12017574C012022F740046
:1001500012023E04B408F9740212022F7F0C7EFFD3
:100160007DFFDDFEDEFCDFFA0200B37E407400128C
:10017000023EDEF9227B00AD3ABD00028016AE3CA5
:10018000A93B741F0B12023ED9F874000B12023EF9
:10019000DEEEDDEA00BB400302022D50FBAD39BDAF
:1001A00000028014AE3DA93B741F0B12023ED9F829
:1001B00074000B12023EDEEE00BB400302022D5023
:1001C000FBAD38BD0002803FAD37A93BBD001074C8
:1001D0001E0B12023ED9F874000B12023E803F74CF
:1001E0001F0B12023ED9F874000B12023EBB4003F3
:1001F00002022D50FBA93B74100B12023ED9F87479
:10020000000B12023E8017A93BAD37BD0002800EE5
:1002100074180B12023ED9F874000B12023E7400DF
:10022000BB4002800850060B12023E80F1002212F1
:10023000024DC292C291F5A0D29300C29322120243
:100240004DC292D291F5A0D29300C29322D2A7C2FE
:1002500091D292C293D29320A7F900C29322C0E018
:10026000C000E4A855B82F0B7832740D7556A5F56B
:0E027000998004E6F599188855D000D0E02258
:03001B00020800D8
:10080000C28E758D3C758BBA0CD28EBC14187C00D0
:10081000C28CC28EAA8A758C00758A00758D3C7553
:070820008BBAD28CD28E329C
:03002300020900CF
:1009000000C299C0E0E556B4A507C2CA755600807A
:09091000040012025E00D0E03286
:080F00005350454544203D20FB
:040F0F0020525053C9
:0F0F2000496E697469616C6973696E672E2E2E54
:100F300052756E6E696E6720636F6D6D2063686BAE
:00000001FF
