:02000000802E50
:10003000753701753801753901753A02753B0775D9
:100040003C02753D01753E01753F01743812014156
:10005000740C1201417406120141740112014190A5
:100060000170E493B4FF028006120150A380F300F4
:100070007440FF1201411200977440FF12014112B7
:1000800000A174C0120141740012015004B408F9B7
:10009000740212014180FE7E407400120150DEF9AC
:1000A000227B00AD3ABD00028016AE3CAC3B741F13
:1000B0000B120150DCF874000B120150DEEEDDEA89
:1000C00000AD39BD00028014AE3DAC3B741F0B1275
:1000D0000150DCF874000B120150DEEE00AD38BDAB
:1000E00000028037AD37AC3BBD0010741E0B12010F
:1000F00050DCF874000B1201508037741F0B120192
:1001000050DCF874000B120150AC3B74100B120160
:1001100050DCF874000B1201508017AC3BAD37BDBA
:100120000002800E74180B120150DCF874000B12E0
:1001300001507400BB400280060B12015080F30096
:100140002212015FC292C291F5A0D29300C2932203
:1001500012015FC292D291F5A0D29300C29322D233
:10016000A7C291D292C293D29320A7F900C2932240
:0C017000416E616C6F67206D65746572F4
:00000001FF
