:02000000802E50
:10003000E4F590F5A0F5B0FBFC7438120088740C60
:10004000120088740612008874011200887B007CFC
:10005000007800900F80E40B93A31200A81200B761
:1000600008B8200578001200C4E493BB10107B0090
:100070000CBC02077C001200CA80031200D0B4FF3F
:10008000D51200C480C780FE120097C292C291F5BB
:10009000A0D29300C29322D2A7C291D292C293D28D
:1000A0009320A7F900C29322120097C292D291F531
:1000B000A0D29300C293227F017EFF7DFFDDFEDE92
:1000C000FADFF6227401120088227480120088225E
:0600D00074C0120088223A
:100F800041204752454154204D494E442043414E53
:100F900020534F4152204849474820494E20494D4F
:100FA0004147494E4154494F4E20594554204245EE
:100FB000204649524D4C592047524F554E444544C6
:00000001FF
