:02000000802E50
:10003000E4F590F5A0F5B0D2B0F974381200677409
:100040000E1200677406120067740112006775983B
:100050005053877F75A89075B81075C83075CBFF61
:1000600075CAD9D2CA80FE120076C292C291F5A09A
:10007000D29300C29322D2A7C291D292C293D293BA
:1000800020A7F900C29322120076C292D291F5A065
:10009000D29300C29322C291D29275A0FFC2930064
:0A00A000D29300E5A0547FC2932222
:03002300021000C8
:1010000000309858C298E599FDBD082B120096B49F
:10101000400474108005B400027450144480F53309
:101020001200677420120087E53312006719E95433
:1010300080600279008025B9200779007480120051
:1010400067B9100050028008B9100574C01200671B
:0D105000ED12008709E9548060027900323A
:00000001FF
