:02000000802E50
:10003000E4F590F5A0F5B07438120073740C12005A
:1000400073740612007374011200731200AFE4F9A6
:1000500078CFFA900F80E81200730A790018E493C1
:10006000120093A309E9B502F51200A2BA10E480C8
:10007000DA80FE120082C292C291F5A0D29300C231
:100080009322D2A7C291D292C293D29320A7F90011
:10009000C29322120082C292D291F5A0D29300C2E2
:1000A00093227F047EFF7DFFDDFEDEFADFF6227401
:0500B0000112007322A3
:100F8000435241574C494E4720202020202020200A
:00000001FF
