:02000000802E50
:10003000007581177438121428740C12142874383F
:10004000121428740C121428740612142874011245
:100050001428901F00121466E474FFF5B0D280D209
:1000600081D282D283D284F5907820E4F608B8FF5A
:10007000FB75C83075CBFF75CADC53877F75985800
:1000800075880175890175A89375B811D2CA901F3A
:100090000D7C607880E493F608A3DCF900D2D37875
:1000A0005FC2D3742E1214371214D71214371214DD
:1000B000CA1214377408F56612148F1214CA121477
:1000C000CA758C00758A007C23798089501214725D
:1000D000D28C00E55F1214F212150112157DE56055
:1000E0001214F712150112158CE5611214F712158E
:1000F00001121598E5621214F21215011215A4E509
:10010000631214FC1215011215B32084031214B0EB
:100110002083031214BA2082031214BE208103121A
:1001200014C200E56604B40D02740812148FF5665B
:10013000307A0FC27AD27BD2D4795F7880869908E0
:10014000C2D400207C0CE55FB4C4005005D27C759D
:100150009941207D12E562B4C400500B307C03123B
:1001600014E9D27D75994200307C028003307D1302
:10017000E55FB4BB0050028007E562B4BB005003EA
:10018000759942002079030200D200C2AF121457C1
:0C019000901F6E1214667587020080FE3E
:03002300021000C8
:10100000C2CAC0E030982CC298E599207F0AB43457
:1010100018759934D27F802BB43507759935C27F06
:101020008021B45304D27A801AB45A17759930D2F9
:10103000798010C299307B0BD2D4869908D902C22C
:091040007BC2D4D0E0D2CA003218
:03000300021200E6
:101200000000C0E0C0D0D2D312149EF6B8630478B8
:0B1210005F800108C2D3D0D0D0E032D4
:03000B00021400DC
:10140000C28CC28D758C00758A00DC19C0E0C0D01A
:101410007C23E5502420B4E0027480F9F5501214C6
:1014200072D0D0D0E0D28C32121446C286C287F578
:10143000A0D28500C28522121446C286D287F5A0AA
:10144000D28500C28522D2A7C287D286C285D28524
:1014500020A7F900C28522740112142822741412E4
:101460001428D5F0FA22E4936006A312143780F60C
:10147000002274021214287A10E712143709DAF9DC
:1014800074C01214287A10E712143709DAF922F519
:1014900090D2B7D2B600C2B6000000D2B622D2B601
:1014A000C2B700007590FFE59000227F50DFFE225A
:1014B0001214C6208403020000221214C622121441
:1014C000C6221214C6221214AB227F067EFF7DFFB5
:1014D000DDFEDEFCDFFA227F107EFF7DFFDDFEDE1B
:1014E000FCDFFA227FFFDFFE227F037EFFDEFEDFCE
:1014F000FC2275F03BA42275F0C4A42275F022A44E
:1015000022756730756830756930756A30756B3073
:0C151000C3F56C85F06DE56C9410F56C73
:10151C00E56D9427F56D056B50F0156BC3E56C24E8
:10152C0010F56CE56D3427F56DC3E56C94E8F56C3E
:10153C00E56D9403F56D056A50F0156AC3E56C24EE
:10154C00E8F56CE56D3403F56DC3E56C9464F56CEE
:10155C00E56D9400F56D056950F01569C3E56C24D3
:10156C0064F56CC3E56C75F00A844268E5F042677B
:10157C0022788AA66B08A66A0808A66908A66822BB
:10158C0078B0A66B0808A66A08A6692278B5A66B7F
:10159C000808A66A08A66922789AA66B08A66A08A3
:1015AC0008A66908A6682278BAA66A0808A6690877
:0315BC00A66822FC
:101F0000494E495449414C495A494E47004241546F
:101F1000544552592041202E2E2E2E2E56424154E9
:101F2000544552592042202E2E2E2E2E56354152E7
:101F3000202035425220203741522020202E2E2EA4
:101F40002E202E2E2E2E202E2E2E2E5620412D527D
:101F5000455320302020422D4F56522030432D55DE
:101F6000444620302020442D554446203000504F18
:0B1F7000574552454420444F574E0097
:00000001FF
