:02000000802E50
:1000300000758110E4F580F590F5A075B0FFD297BA
:100040001217467820E4F608B87FFB75C83075CBE8
:10005000FF75CADC75891053877FD2D37860C2D30D
:1000600075A89075B810759858D2CA7860E660186F
:100070007600901000C3946075F010A42582F5827C
:10008000E5F03583F583E47308B8680278600020F2
:10009000790302006D00C2AFE4F580F590F5A0F59C
:0D00A000B01217467599307587020080FE7A
:0C101000C2977A0012163BD297020088AB
:0C102000C2977A0112163BD2970200889A
:0A103000C2977A001214EF02008844
:0A104000C2977A00121542020088E0
:0A105000C2977A011214EF02008823
:0A106000C2977A01121542020088BF
:0A107000C2977A001215950200885D
:0A108000C2977A001215E8020088FA
:0A109000C2977A011215950200883C
:0A10A000C2977A011215E8020088D9
:0D10B000C2977A0012144912149C020088A5
:0D10C000C2977A0112144912149C02008894
:0F10D000C2977A0012149C7A0112144902008808
:0F10E000C2977A001214497A0112149C020088F8
:0C10F000C2977A01121697D2970200886E
:0C110000C2977A00121697D2970200885E
:0D111000D2977A0212144912149C02008832
:0A112000D2977A031214EF02008840
:0A113000D2977A03121542020088DC
:0A114000D2977A0312159502008879
:0A115000D2977A031215E802008816
:0A116000C2977A001216F30200880D
:0A117000C2977A011216F3020088FC
:0A118000D2977A031216F3020088DA
:03002300021400C4
:10140000C2CAC0E030983AC298E59920D50AB431F2
:101410002B759931D2D5802BB43207759932C2D54C
:101420008021D2D3B461004013B48000500EF6087E
:10143000B868027860759939C2D38007B45A04D26B
:1014400079C299D0E0D2CA003200BA0009D2A0C253
:10145000A17534008044BA0109C2A0D2A17534013B
:101460008038BA0209C2A0C2A1753404802CAB3402
:10147000BB0013C2A0C2A1121753D2A1121753C2AC
:10148000A17534048014BB0111C2A0C2A11217536C
:10149000D2A0121753C2A0753404002200BA00096A
:1014A000D2A2C2A37538008044BA0109C2A2D2A355
:1014B0007538018038BA0209C2A2C2A37538048007
:1014C0002CAB38BB0013C2A2C2A3121753D2A31273
:1014D0001753C2A37538048014BB0111C2A2C2A362
:1014E000121753D2A2121753C2A275380400220059
:1014F000BA0009D2A4C2A5753C00809EBA0109C2F7
:10150000A4D2A5753C018038BA0209C2A4C2A5754F
:101510003C04802CAB3CBB0013C2A4C2A5121753E1
:10152000D2A5121753C2A5753C048014BB0111C289
:10153000A4C2A5121753D2A4121753C2A4753C0417
:10154000002200BA0009D2A6C2A77540008044BAA2
:041550000109C2A625
:10155400D2A77540018038BA0209C2A6C2A7754055
:1015640004802CAB40BB0013C2A6C2A7121753D2EF
:10157400A7121753C2A77540048014BB0111C2A659
:10158400C2A7121753D2A6121753C2A6754004005D
:101594002200BA0009D290C2917544008044BA0175
:1015A40009C290D2917544018038BA0209C290C22E
:1015B40091754404802CAB44BB0013C290C29112B9
:1015C4001753D291121753C2917544048014BB016E
:1015D40011C290C291121753D290121753C2907530
:1015E4004404002200BA0009D292C29375480080D4
:1015F40044BA0109C292D2937548018038BA0209EB
:10160400C292C293754804802CAB48BB0013C292AB
:10161400C293121753D293121753C293754804807E
:1016240014BB0111C292C293121753D292121753D0
:10163400C2927548040022BA002C7E057F02C2942F
:10164400C28EC28F758D5D758BFDD28E308FFDC2BB
:101654008FDFEBC28E758DFD758BD7D294D28E3011
:101664008FFDDED8802A7E08C28E758DE2758BD7F9
:10167400D294D28E308FFD7F02C294C28EC28F75F7
:101684008D5D758BFDD28E308FFDC28FDFEBDED882
:10169400C28E22BA002C7E0C7F02C295C28EC28FEB
:0B16A400758D5D758BFDD28E308FFDC3
:1016AF00C28FDFEBC28E758DFD758BD7D295D28E23
:1016BF00308FFDDED8802A7E0AC28E758DE2758B43
:1016CF00D7D295D28E308FFD7F02C295C28EC28F38
:1016DF00758D5D758BFDD28E308FFDC28FDFEBDE8A
:1016EF00D8C28E2200BA0009D280C2817530008024
:1016FF0044BA0109C280D2817530018038BA02091B
:10170F00C280C281753004802CAB30BB0013C28005
:10171F00C281121753D281121753C28175300480C0
:10172F0014BB0111C280C281121753D280121753FA
:10173F00C28075300400227F077EFF7DFFDDFEDE55
:10174F00FCDFFA227FA0DFFE227F0F7EFF7DFFDD11
:06175F00FEDEFCDFFA22B1
:00000001FF
