:02000000802E50
:10003000E4F590F5A0F5B0D2B0F974381200677409
:100040000E1200677406120067740112006775983B
:100050005053877F75A89075B81075C83075CBFF61
:1000600075CADCD2CA80FE120076C292C291F5A097
:10007000D29300C29322D2A7C291D292C293D293BA
:1000800020A7F900C29322120076C292D291F5A065
:10009000D29300C29322C291D29275A0FFC2930064
:0A00A000D29300E5A0547FC2932222
:03002300021000C8
:101000000030983EC298E599FDBD0818120096146C
:101010004480F5331200677420120087E533120014
:101020006719801EB9200779007480120067B91013
:101030000050028008B9100574C0120067ED12005C
:03104000870932EB
:00000001FF
