:02000000802E50
:03002300020900CF
:10003000758915758D3C758BB0D28ED28CE4F59098
:10004000F5A078007A007C0075323075313075305B
:1000500030D2B4753B07753C02753D01753E0175A4
:100060003F0175CBFF75CAD975C83053877F759826
:100070004075A89875B808D2CA12023874301202B6
:10008000358A33A8337438120206740C12020674CF
:10009000061202067401120206E875F06484243028
:1000A000F532E5F075F00A842430F531E5F02430BE
:1000B000F530E53375F00884F53AE5F075F0048421
:1000C000F539E5F075F00284F53885F03700900FCA
:1000D00000E493B4FF028006120215A380F300E54A
:1000E00032120215E531120215E5301202150090A8
:1000F0000F0FE493B4FF028006120215A380F300F1
:100100007440FF1202061201427440FF12020612EE
:10011000014C74C0120206740012021504B408F9EE
:100120007402120206D2E3E8F9A73209A73109A73F
:1001300030C2E37F047EFF7DFFDDFEDEFCDFFB02DD
:1001400000817E407400120215DEF9227B00AD3A78
:10015000BD00028016AE3CA93B741F0B120215D9DC
:10016000F874000B120215DEEEDDEA00BB4003025C
:10017000020450FBAD39BD00028014AE3DA93B74B2
:100180001F0B120215D9F874000B120215DEEE00D7
:10019000BB400302020450FBAD38BD0002803FADFE
:1001A00037A93BBD0010741E0B120215D9F874005C
:1001B0000B120215803F741F0B120215D9F8740040
:1001C0000B120215BB400302020450FBA93B741042
:1001D0000B120215D9F874000B1202158017A93BF7
:1001E000AD37BD0002800E74180B120215D9F874D9
:1001F000000B1202157400BB4002800850060B125F
:10020000021580F10022120224C292C291F5A0D2FE
:100210009300C29322120224C292D291F5A0D293EB
:1002200000C29322D2A7C291D292C293D29320A7A6
:10023000F900C29322F59922D2E37A50900F20E47C
:10024000795093B4FF028005F709A380F200E9F822
:03025000C2E322E4
:03001B00020800D8
:10080000C28E758D3C758BBA0CD28EBC14187C00D0
:10081000C28CC28EAA8A758C00758A00758D3C7553
:070820008BBAD28CD28E329C
:10090000C0E0C083C082D2E3E9FDBA6203120238BC
:0F091000EAF9E70AEDF9D082D083D0E0C2E332F2
:080F00005350454544203D20FB
:040F0F0020525053C9
:0F0F20005350454544202852505329203D20204E
:00000001FF
