:02000000802E50
:1000300075891575A88875B808758D3C758BB0D213
:100040008ED28CE4F590F5A078007A007C007532B1
:10005000337531337530338A33A83374381200C89E
:10006000740C1200C874061200C874011200C8E8AB
:1000700075F064842430F532E5F075F00A8424309C
:10008000F531E5F02430F530900F00E493B4FF0231
:1000900080061200D7A380F300E5321200D7E531C5
:1000A0001200D7E5301200D700900F0FE493B4FF91
:1000B0000280061200D7A380F3007F057EFF7DFF3C
:1000C000DDFEDEFCDFFB808F1200E6C292C291F5FE
:1000D000A0D29300C293221200E6C292D291F5A060
:1000E000D29300C29322D2A7C291D292C293D2934A
:0700F00020A7F900C29322D2
:03001B00020800D8
:10080000C28E758D3C758BBA0CD28EBC14187C00D0
:10081000C28CC28EAA8A758C00758A00758D3C7553
:070820008BBAD28CD28E329C
:080F00005350454544203D20FB
:040F0F0020525053C9
:00000001FF
