:02000000802E50
:10003000E4F590F5A0F5B0FB7438120064740C126E
:10004000006474061200647401120064900F80E46E
:1000500093A3120084120093E493B4FFF21200A061
:1000600080EA80FE120073C292C291F5A0D2930082
:10007000C29322D2A7C291D292C293D29320A7F95F
:1000800000C29322120073C292D291F5A0D29300C3
:10009000C293227F037EFF7DFFDDFEDEFADFF622C4
:0B00A000740112006474C0120064229E
:0B0F8000686579207370752021212125
:00000001FF
